{
  "contractName": "JobOrder",
  "abi": [
    {
      "constant": true,
      "inputs": [],
      "name": "word",
      "outputs": [
        {
          "name": "",
          "type": "string"
        }
      ],
      "payable": false,
      "stateMutability": "view",
      "type": "function",
      "signature": "0x2f64d386"
    },
    {
      "inputs": [],
      "payable": false,
      "stateMutability": "nonpayable",
      "type": "constructor",
      "signature": "constructor"
    },
    {
      "anonymous": false,
      "inputs": [
        {
          "indexed": false,
          "name": "sender",
          "type": "address"
        },
        {
          "indexed": false,
          "name": "newWord",
          "type": "string"
        }
      ],
      "name": "Set",
      "type": "event",
      "signature": "0xde696604ac839ef8a5d0fcb2310ea48463357a6247e0d961d77c41d136a5d946"
    },
    {
      "constant": true,
      "inputs": [],
      "name": "get",
      "outputs": [
        {
          "name": "",
          "type": "string"
        }
      ],
      "payable": false,
      "stateMutability": "view",
      "type": "function",
      "signature": "0x6d4ce63c"
    },
    {
      "constant": false,
      "inputs": [
        {
          "name": "newWord",
          "type": "string"
        }
      ],
      "name": "set",
      "outputs": [],
      "payable": false,
      "stateMutability": "nonpayable",
      "type": "function",
      "signature": "0x4ed3885e"
    }
  ],
  "bytecode": "0x608060405234801561001057600080fd5b506040805190810160405280600d81526020017f48656c6c6f20576f726c642121000000000000000000000000000000000000008152506000908051906020019061005c929190610062565b50610107565b828054600181600116156101000203166002900490600052602060002090601f016020900481019282601f106100a357805160ff19168380011785556100d1565b828001600101855582156100d1579182015b828111156100d05782518255916020019190600101906100b5565b5b5090506100de91906100e2565b5090565b61010491905b808211156101005760008160009055506001016100e8565b5090565b90565b61053f806101166000396000f3fe608060405260043610610057576000357c0100000000000000000000000000000000000000000000000000000000900463ffffffff1680632f64d3861461005c5780634ed3885e146100ec5780636d4ce63c146101b4575b600080fd5b34801561006857600080fd5b50610071610244565b6040518080602001828103825283818151815260200191508051906020019080838360005b838110156100b1578082015181840152602081019050610096565b50505050905090810190601f1680156100de5780820380516001836020036101000a031916815260200191505b509250505060405180910390f35b3480156100f857600080fd5b506101b26004803603602081101561010f57600080fd5b810190808035906020019064010000000081111561012c57600080fd5b82018360208201111561013e57600080fd5b8035906020019184600183028401116401000000008311171561016057600080fd5b91908080601f016020809104026020016040519081016040528093929190818152602001838380828437600081840152601f19601f8201169050808301925050505050505091929192905050506102e2565b005b3480156101c057600080fd5b506101c96103cc565b6040518080602001828103825283818151815260200191508051906020019080838360005b838110156102095780820151818401526020810190506101ee565b50505050905090810190601f1680156102365780820380516001836020036101000a031916815260200191505b509250505060405180910390f35b60008054600181600116156101000203166002900480601f0160208091040260200160405190810160405280929190818152602001828054600181600116156101000203166002900480156102da5780601f106102af576101008083540402835291602001916102da565b820191906000526020600020905b8154815290600101906020018083116102bd57829003601f168201915b505050505081565b80600090805190602001906102f892919061046e565b507fde696604ac839ef8a5d0fcb2310ea48463357a6247e0d961d77c41d136a5d9463382604051808373ffffffffffffffffffffffffffffffffffffffff1673ffffffffffffffffffffffffffffffffffffffff16815260200180602001828103825283818151815260200191508051906020019080838360005b8381101561038e578082015181840152602081019050610373565b50505050905090810190601f1680156103bb5780820380516001836020036101000a031916815260200191505b50935050505060405180910390a150565b606060008054600181600116156101000203166002900480601f0160208091040260200160405190810160405280929190818152602001828054600181600116156101000203166002900480156104645780601f1061043957610100808354040283529160200191610464565b820191906000526020600020905b81548152906001019060200180831161044757829003601f168201915b5050505050905090565b828054600181600116156101000203166002900490600052602060002090601f016020900481019282601f106104af57805160ff19168380011785556104dd565b828001600101855582156104dd579182015b828111156104dc5782518255916020019190600101906104c1565b5b5090506104ea91906104ee565b5090565b61051091905b8082111561050c5760008160009055506001016104f4565b5090565b9056fea165627a7a723058207d1e9535a8f4a20c4a6042d58e2aeddfadf6b83e595bd6e995eb34badc59598a0029",
  "source": "pragma solidity ^0.5.0;\n\n\ncontract JobOrder {\n  string public word;\n  \n  event Set(address sender, string newWord);\n\n  constructor() public {\n    word = \"Hello World!!\";\n  }\n  \n  function get() public view returns(string memory){\n    return word;\n  }\n\n  function set(string memory newWord) public {\n    word = newWord;\n    emit Set(msg.sender, newWord);\n  }\n}\n",
  "sourcePath": "/Users/koki/Projects/AngelAccelerator/easyjob_front_ui/solidity/contracts/JobOrder.sol",
  "compiler": {
    "name": "solc",
    "version": "0.5.0+commit.1d4f565a.Emscripten.clang"
  },
  "schemaVersion": "3.0.2",
  "updatedAt": "2019-03-07T17:36:46.532Z",
  "devdoc": {
    "methods": {}
  },
  "userdoc": {
    "methods": {}
  }
}